{
  "contractName": "PeaceToken",
  "abi": [
    {
      "inputs": [],
      "payable": false,
      "stateMutability": "nonpayable",
      "type": "constructor"
    },
    {
      "constant": true,
      "inputs": [],
      "name": "totalSupply",
      "outputs": [
        {
          "internalType": "uint256",
          "name": "",
          "type": "uint256"
        }
      ],
      "payable": false,
      "stateMutability": "view",
      "type": "function"
    }
  ],
  "bytecode": "0x6080604052348015600f57600080fd5b50620f42406000819055506084806100286000396000f3fe6080604052348015600f57600080fd5b506004361060285760003560e01c806318160ddd14602d575b600080fd5b60336049565b6040518082815260200191505060405180910390f35b6000548156fea265627a7a72315820b7b6d6d4bfd0573f18bdf42dafb4d835b516eed0714787fe638f58fe2fd0aba264736f6c63430005100032",
  "source": "pragma solidity ^0.5.16;\n\ncontract PeaceToken {\n    // string name public = \"Peace Token\";\n\n    uint256 public totalSupply; // The total supply of PeaceTokens\n\n    // Constructor\n\n    // Set The total number of tokens\n\n    // Read The total number of tokens\n\n    constructor() public {\n        totalSupply = 1000000;\n    }\n}\n",
  "sourcePath": "/Users/danielsaneel/Desktop/Blockchain Dev/Dapp University/Crypto_StonerToken/token_sale/contracts/PeaceToken.sol",
  "compiler": {
    "name": "solc",
    "version": "0.5.16+commit.9c3226ce.Emscripten.clang"
  },
  "schemaVersion": "3.3.3",
  "updatedAt": "2021-01-23T03:09:04.634Z",
  "networkType": "ethereum",
  "devdoc": {
    "methods": {}
  },
  "userdoc": {
    "methods": {}
  }
}